:100000000C9434000C9451000C9451000C94510049
:100010000C9451000C940E010C9451000C9451005E
:100020000C9451000C9451000C9451000C94D60087
:100030000C9451000C9451000C9451000C945100FC
:100040000C9451000C9451000C9451000C945100EC
:100050000C9451000C9451000C9451000C945100DC
:100060000C9451000C94510011241FBECFEFD8E026
:10007000DEBFCDBF11E0A0E0B1E0EEECF4E002C0E5
:1000800005900D92A230B107D9F711E0A2E0B1E0DE
:1000900001C01D92AD30B107E1F70E9453000C94EE
:1000A00065020C940000DF93CF93CDB7DEB70E94BA
:1000B00062000E94B100809100018130E1F70E944E
:1000C0003B01F9CFDF93CF93CDB7DEB7AAE2B0E023
:1000D000EAE2F0E080818E7F8C93AAE2B0E0EAE26F
:1000E000F0E080818D7F8C93ABE2B0E0EBE2F0E05A
:1000F000808181608C93ABE2B0E0EBE2F0E0808144
:1001000082608C93ADE6B0E0EDE6F0E08081816046
:100110008C93ADE6B0E0EDE6F0E0808182608C93F8
:10012000A8E6B0E0E8E6F0E0808184608C93A4E289
:10013000B0E0E4E2F0E0808182608C93A1E8B0E07E
:10014000E1E8F0E080818D608C93E8E8F0E088E001
:100150009DE3918380830E942C027894CF91DF915C
:100160000895DF93CF93CDB7DEB7E9E2F0E0808169
:10017000882F90E081709070882319F01092070109
:1001800003C081E080930701E9E2F0E08081882FDD
:1001900090E082709070009719F01092080103C0EF
:1001A00081E080930801CF91DF9108951F920F9213
:1001B0000FB60F9211242F933F934F935F936F933A
:1001C0007F938F939F93AF93BF93EF93FF93DF93AF
:1001D000CF93CDB7DEB7809102018F5F809302018C
:1001E000809102018F3039F40E941A0281E08093DD
:1001F000060110920201CF91DF91FF91EF91BF9123
:10020000AF919F918F917F916F915F914F913F91AE
:100210002F910F900FBE0F901F9018951F920F9265
:100220000FB60F9211242F933F934F935F936F93C9
:100230007F938F939F93AF93BF93EF93FF93DF933E
:10024000CF93CDB7DEB781E0809300010E94B1006B
:10025000CF91DF91FF91EF91BF91AF919F918F91DE
:100260007F916F915F914F913F912F910F900FBEB2
:100270000F901F901895DF93CF9300D0CDB7DEB7C6
:1002800080910901282F30E03A83298389819A815E
:100290008130910541F129813A81223031052CF4D8
:1002A00089819A81009771F0A8C029813A81223012
:1002B000310509F456C089819A818330910509F48A
:1002C00074C09BC080910701813021F481E080934C
:1002D000090198C080910801813009F093C082E043
:1002E000809309018FC080910701813071F4809162
:1002F0000801882351F480910501882331F481E0BD
:10030000809305010E9407027DC080910701813022
:1003100081F480910801882361F480910601813085
:1003200041F483E0809309011092050110920601C7
:1003300069C080910701813009F064C08091080193
:10034000813009F05FC080910501813031F40E9455
:100350001A02109205011092060182E080930901B1
:1003600051C080910801813081F480910A01882375
:1003700009F048C0A5E2B0E0E5E2F0E080818260EB
:100380008C9381E080930A013DC010920901809115
:100390000A018130B9F5A5E2B0E0E5E2F0E0808144
:1003A0008D7F8C9310920A012DC0809108018130BD
:1003B00061F480910B01813021F40E94510210926E
:1003C0000B0182E0809309011DC080910B018823FD
:1003D00029F40E943B0281E080930B018091070188
:1003E000882381F41092090180910B01813051F42E
:1003F0000E94510210920B0105C080910C018F5F89
:1004000080930C010F900F90CF91DF910895DF93AF
:10041000CF93CDB7DEB7E4E8F0E011821082AFE60B
:10042000B0E0EFE6F0E0808182608C937894CF9129
:10043000DF910895DF93CF93CDB7DEB7AFE6B0E09D
:10044000EFE6F0E080818D7F8C93E4E8F0E01182AC
:100450001082CF91DF910895DF93CF93CDB7DEB7B0
:10046000E0EBF0E083E28083E1EBF0E08FE080837B
:10047000CF91DF910895DF93CF93CDB7DEB7E3EB54
:10048000F0E089EF8083E4EBF0E08CE78083AAE280
:10049000B0E0EAE2F0E0808188608C93CF91DF9158
:1004A0000895DF93CF93CDB7DEB7E3EBF0E0108292
:1004B000E4EBF0E01082AAE2B0E0EAE2F0E0808152
:0E04C000877F8C93CF91DF910895F894FFCF42
:0204CE0001002B
:00000001FF
